{
  "_format": "hh3-artifact-1",
  "contractName": "Voting",
  "sourceName": "contracts/Voting.sol",
  "abi": [
    {
      "inputs": [],
      "stateMutability": "nonpayable",
      "type": "constructor"
    },
    {
      "anonymous": false,
      "inputs": [
        {
          "indexed": true,
          "internalType": "uint256",
          "name": "pollId",
          "type": "uint256"
        },
        {
          "indexed": true,
          "internalType": "address",
          "name": "closedBy",
          "type": "address"
        }
      ],
      "name": "PollClosed",
      "type": "event"
    },
    {
      "anonymous": false,
      "inputs": [
        {
          "indexed": true,
          "internalType": "uint256",
          "name": "pollId",
          "type": "uint256"
        },
        {
          "indexed": false,
          "internalType": "string",
          "name": "title",
          "type": "string"
        },
        {
          "indexed": false,
          "internalType": "uint64",
          "name": "startTime",
          "type": "uint64"
        },
        {
          "indexed": false,
          "internalType": "uint64",
          "name": "endTime",
          "type": "uint64"
        },
        {
          "indexed": true,
          "internalType": "address",
          "name": "creator",
          "type": "address"
        }
      ],
      "name": "PollCreated",
      "type": "event"
    },
    {
      "anonymous": false,
      "inputs": [
        {
          "indexed": true,
          "internalType": "address",
          "name": "user",
          "type": "address"
        },
        {
          "indexed": false,
          "internalType": "enum Voting.Role",
          "name": "role",
          "type": "uint8"
        }
      ],
      "name": "RoleUpdated",
      "type": "event"
    },
    {
      "anonymous": false,
      "inputs": [
        {
          "indexed": true,
          "internalType": "uint256",
          "name": "pollId",
          "type": "uint256"
        },
        {
          "indexed": true,
          "internalType": "uint256",
          "name": "optionId",
          "type": "uint256"
        },
        {
          "indexed": true,
          "internalType": "address",
          "name": "voter",
          "type": "address"
        }
      ],
      "name": "Voted",
      "type": "event"
    },
    {
      "inputs": [
        {
          "internalType": "uint256",
          "name": "pollId",
          "type": "uint256"
        }
      ],
      "name": "closePoll",
      "outputs": [],
      "stateMutability": "nonpayable",
      "type": "function"
    },
    {
      "inputs": [
        {
          "internalType": "string",
          "name": "title",
          "type": "string"
        },
        {
          "internalType": "string",
          "name": "description",
          "type": "string"
        },
        {
          "internalType": "string[]",
          "name": "options",
          "type": "string[]"
        },
        {
          "internalType": "uint64",
          "name": "startTime",
          "type": "uint64"
        },
        {
          "internalType": "uint64",
          "name": "endTime",
          "type": "uint64"
        }
      ],
      "name": "createPoll",
      "outputs": [
        {
          "internalType": "uint256",
          "name": "",
          "type": "uint256"
        }
      ],
      "stateMutability": "nonpayable",
      "type": "function"
    },
    {
      "inputs": [
        {
          "internalType": "uint256",
          "name": "pollId",
          "type": "uint256"
        }
      ],
      "name": "getPoll",
      "outputs": [
        {
          "internalType": "string",
          "name": "title",
          "type": "string"
        },
        {
          "internalType": "string",
          "name": "description",
          "type": "string"
        },
        {
          "internalType": "string[]",
          "name": "options",
          "type": "string[]"
        },
        {
          "internalType": "uint256[]",
          "name": "votes",
          "type": "uint256[]"
        },
        {
          "internalType": "uint64",
          "name": "startTime",
          "type": "uint64"
        },
        {
          "internalType": "uint64",
          "name": "endTime",
          "type": "uint64"
        },
        {
          "internalType": "bool",
          "name": "active",
          "type": "bool"
        },
        {
          "internalType": "address",
          "name": "creator",
          "type": "address"
        }
      ],
      "stateMutability": "view",
      "type": "function"
    },
    {
      "inputs": [
        {
          "internalType": "address",
          "name": "user",
          "type": "address"
        }
      ],
      "name": "getRole",
      "outputs": [
        {
          "internalType": "enum Voting.Role",
          "name": "",
          "type": "uint8"
        }
      ],
      "stateMutability": "view",
      "type": "function"
    },
    {
      "inputs": [
        {
          "internalType": "uint256",
          "name": "pollId",
          "type": "uint256"
        },
        {
          "internalType": "address",
          "name": "voter",
          "type": "address"
        }
      ],
      "name": "hasAddressVoted",
      "outputs": [
        {
          "internalType": "bool",
          "name": "",
          "type": "bool"
        }
      ],
      "stateMutability": "view",
      "type": "function"
    },
    {
      "inputs": [
        {
          "internalType": "uint256",
          "name": "",
          "type": "uint256"
        },
        {
          "internalType": "address",
          "name": "",
          "type": "address"
        }
      ],
      "name": "hasVoted",
      "outputs": [
        {
          "internalType": "bool",
          "name": "",
          "type": "bool"
        }
      ],
      "stateMutability": "view",
      "type": "function"
    },
    {
      "inputs": [],
      "name": "owner",
      "outputs": [
        {
          "internalType": "address",
          "name": "",
          "type": "address"
        }
      ],
      "stateMutability": "view",
      "type": "function"
    },
    {
      "inputs": [
        {
          "internalType": "address",
          "name": "",
          "type": "address"
        }
      ],
      "name": "roles",
      "outputs": [
        {
          "internalType": "enum Voting.Role",
          "name": "",
          "type": "uint8"
        }
      ],
      "stateMutability": "view",
      "type": "function"
    },
    {
      "inputs": [
        {
          "internalType": "address",
          "name": "user",
          "type": "address"
        },
        {
          "internalType": "enum Voting.Role",
          "name": "role",
          "type": "uint8"
        }
      ],
      "name": "setRole",
      "outputs": [],
      "stateMutability": "nonpayable",
      "type": "function"
    },
    {
      "inputs": [],
      "name": "totalPolls",
      "outputs": [
        {
          "internalType": "uint256",
          "name": "",
          "type": "uint256"
        }
      ],
      "stateMutability": "view",
      "type": "function"
    },
    {
      "inputs": [
        {
          "internalType": "uint256",
          "name": "pollId",
          "type": "uint256"
        },
        {
          "internalType": "uint256",
          "name": "optionId",
          "type": "uint256"
        }
      ],
      "name": "vote",
      "outputs": [],
      "stateMutability": "nonpayable",
      "type": "function"
    }
  ],
  "bytecode": "0x6080604052348015600e575f5ffd5b505f8054336001600160a01b0319909116811782558152600160205260409020805460ff1916600217905561155c806100465f395ff3fe608060405234801561000f575f5ffd5b50600436106100a6575f3560e01c80638da5cb5b1161006e5780638da5cb5b146101775780639534e637146101a157806399374642146101b4578063a2eeeb2f146101d6578063b384abef146101e8578063d0822645146101fb575f5ffd5b80631a8cbcaa146100aa57806343859632146100da5780634427673314610117578063571c3e601461014f578063736faeec14610164575b5f5ffd5b6100bd6100b8366004610eea565b61020e565b6040516100d1989796959493929190610f69565b60405180910390f35b6101076100e8366004611061565b600360209081525f928352604080842090915290825290205460ff1681565b60405190151581526020016100d1565b61014261012536600461108b565b6001600160a01b03165f9081526001602052604090205460ff1690565b6040516100d191906110bf565b61016261015d3660046110e5565b610504565b005b610107610172366004611061565b610656565b5f54610189906001600160a01b031681565b6040516001600160a01b0390911681526020016100d1565b6101626101af366004610eea565b6106a6565b6101426101c236600461108b565b60016020525f908152604090205460ff1681565b6002545b6040519081526020016100d1565b6101626101f636600461111d565b6107bc565b6101da610209366004611202565b610a7f565b6060806060805f5f5f5f60028054905089106102455760405162461bcd60e51b815260040161023c90611340565b60405180910390fd5b5f60028a8154811061025957610259611368565b5f918252602090912060069091020160048101546005820154825492935083926001840192600285019260038601926001600160401b0380841693600160401b810490911692600160801b90910460ff16916001600160a01b039091169088906102c29061137c565b80601f01602080910402602001604051908101604052809291908181526020018280546102ee9061137c565b80156103395780601f1061031057610100808354040283529160200191610339565b820191905f5260205f20905b81548152906001019060200180831161031c57829003601f168201915b5050505050975086805461034c9061137c565b80601f01602080910402602001604051908101604052809291908181526020018280546103789061137c565b80156103c35780601f1061039a576101008083540402835291602001916103c3565b820191905f5260205f20905b8154815290600101906020018083116103a657829003601f168201915b5050505050965085805480602002602001604051908101604052809291908181526020015f905b82821015610492578382905f5260205f200180546104079061137c565b80601f01602080910402602001604051908101604052809291908181526020018280546104339061137c565b801561047e5780601f106104555761010080835404028352916020019161047e565b820191905f5260205f20905b81548152906001019060200180831161046157829003601f168201915b5050505050815260200190600101906103ea565b505050509550848054806020026020016040519081016040528092919081815260200182805480156104e157602002820191905f5260205f20905b8154815260200190600101908083116104cd575b505050505094509850985098509850985098509850985050919395975091939597565b5f546001600160a01b031633146105495760405162461bcd60e51b81526020600482015260096024820152683737ba16b7bbb732b960b91b604482015260640161023c565b6001600160a01b03821661058a5760405162461bcd60e51b81526020600482015260086024820152673130b216bab9b2b960c11b604482015260640161023c565b5f81600281111561059d5761059d6110ab565b036105d55760405162461bcd60e51b81526020600482015260086024820152676261642d726f6c6560c01b604482015260640161023c565b6001600160a01b0382165f9081526001602081905260409091208054839260ff199091169083600281111561060c5761060c6110ab565b0217905550816001600160a01b03167fc3f8f61911a1537261f77e2703626e158e299a98e341024ecaa26bbd1d884c648260405161064a91906110bf565b60405180910390a25050565b6002545f9083106106795760405162461bcd60e51b815260040161023c90611340565b505f8281526003602090815260408083206001600160a01b038516845290915290205460ff165b92915050565b5f546001600160a01b031633146106eb5760405162461bcd60e51b81526020600482015260096024820152683737ba16b7bbb732b960b91b604482015260640161023c565b600254811061070c5760405162461bcd60e51b815260040161023c90611340565b5f6002828154811061072057610720611368565b905f5260205f20906006020190508060040160109054906101000a900460ff1661077d5760405162461bcd60e51b815260206004820152600e60248201526d185b1c9958591e4b58db1bdcd95960921b604482015260640161023c565b60048101805460ff60801b19169055604051339083907f5f9f4b9200056c29dcdf9532acb77e0d5368e9f85580b6e1aeff24c36bddea2b905f90a35050565b6002335f9081526001602052604090205460ff1660028111156107e1576107e16110ab565b0361081c5760405162461bcd60e51b815260206004820152600b60248201526a1b9bdd0b5cdd1d59195b9d60aa1b604482015260640161023c565b600254821061083d5760405162461bcd60e51b815260040161023c90611340565b5f6002838154811061085157610851611368565b905f5260205f20906006020190508060040160109054906101000a900460ff166108ab5760405162461bcd60e51b815260206004820152600b60248201526a1c1bdb1b0b58db1bdcd95960aa1b604482015260640161023c565b600281015482106108eb5760405162461bcd60e51b815260206004820152600a6024820152693130b216b7b83a34b7b760b11b604482015260640161023c565b5f83815260036020908152604080832033845290915290205460ff16156109445760405162461bcd60e51b815260206004820152600d60248201526c185b1c9958591e4b5d9bdd1959609a1b604482015260640161023c565b60048101546001600160401b031642101561098f5760405162461bcd60e51b815260206004820152600b60248201526a1b9bdd0b5cdd185c9d195960aa1b604482015260640161023c565b6004810154600160401b90046001600160401b0316156109fa576004810154600160401b90046001600160401b03164211156109fa5760405162461bcd60e51b815260206004820152600a6024820152691c1bdb1b0b595b99195960b21b604482015260640161023c565b6001816003018381548110610a1157610a11611368565b905f5260205f20015f828254610a2791906113c8565b90915550505f838152600360209081526040808320338085529252808320805460ff19166001179055519091849186917fd91ecafccf238642dccd41161308b3eebe62a12bc5819daf5164780c221ec95b91a4505050565b5f6002335f9081526001602052604090205460ff166002811115610aa557610aa56110ab565b14610ae05760405162461bcd60e51b815260206004820152600b60248201526a3737ba16ba32b0b1b432b960a91b604482015260640161023c565b5f865111610b215760405162461bcd60e51b815260206004820152600e60248201526d1d1a5d1b194b5c995c5d5a5c995960921b604482015260640161023c565b600284511015610b645760405162461bcd60e51b815260206004820152600e60248201526d6e6565642d322d6f7074696f6e7360901b604482015260640161023c565b826001600160401b03165f03610b78574292505b6001600160401b03821615610bda57826001600160401b0316826001600160401b031611610bda5760405162461bcd60e51b815260206004820152600f60248201526e195b990b58599d195c8b5cdd185c9d608a1b604482015260640161023c565b5f84516001600160401b03811115610bf457610bf461113d565b604051908082528060200260200182016040528015610c1d578160200160208202803683370190505b50604080516101008101825289815260208101899052908101879052606081018290526001600160401b038087166080830152851660a0820152600160c082018190523360e08301526002805491820181555f528151929350909160069091027f405787fa12a823e0f2b7631cc41b3ba8828b3321ca811111fa75cd3aa3bb5ace01908190610cac9082611427565b5060208201516001820190610cc19082611427565b5060408201518051610cdd916002840191602090910190610de7565b5060608201518051610cf9916003840191602090910190610e3b565b50608082015160048201805460a085015160c08601511515600160801b0260ff60801b196001600160401b03928316600160401b026fffffffffffffffffffffffffffffffff199094169290951691909117919091179290921691909117905560e090910151600590910180546001600160a01b039092166001600160a01b03199092169190911790556002545f90610d94906001906114e1565b9050336001600160a01b0316817feac3f20370f7b67194902fef7af70c0e18f02358fc4b5671d214410fd0a46aea8a8888604051610dd4939291906114f4565b60405180910390a3979650505050505050565b828054828255905f5260205f20908101928215610e2b579160200282015b82811115610e2b5782518290610e1b9082611427565b5091602001919060010190610e05565b50610e37929150610e80565b5090565b828054828255905f5260205f20908101928215610e74579160200282015b82811115610e74578251825591602001919060010190610e59565b50610e37929150610e9c565b80821115610e37575f610e938282610eb0565b50600101610e80565b5b80821115610e37575f8155600101610e9d565b508054610ebc9061137c565b5f825580601f10610ecb575050565b601f0160209004905f5260205f2090810190610ee79190610e9c565b50565b5f60208284031215610efa575f5ffd5b5035919050565b5f81518084528060208401602086015e5f602082860101526020601f19601f83011685010191505092915050565b5f8151808452602084019350602083015f5b82811015610f5f578151865260209586019590910190600101610f41565b5093949350505050565b61010081525f610f7d61010083018b610f01565b8281036020840152610f8f818b610f01565b9050828103604084015280895180835260208301915060208160051b84010160208c015f5b83811015610fe657601f19868403018552610fd0838351610f01565b6020958601959093509190910190600101610fb4565b50508581036060870152610ffa818c610f2f565b94505050505061101560808301876001600160401b03169052565b6001600160401b039490941660a082015291151560c08301526001600160a01b031660e09091015295945050505050565b80356001600160a01b038116811461105c575f5ffd5b919050565b5f5f60408385031215611072575f5ffd5b8235915061108260208401611046565b90509250929050565b5f6020828403121561109b575f5ffd5b6110a482611046565b9392505050565b634e487b7160e01b5f52602160045260245ffd5b60208101600383106110df57634e487b7160e01b5f52602160045260245ffd5b91905290565b5f5f604083850312156110f6575f5ffd5b6110ff83611046565b9150602083013560038110611112575f5ffd5b809150509250929050565b5f5f6040838503121561112e575f5ffd5b50508035926020909101359150565b634e487b7160e01b5f52604160045260245ffd5b604051601f8201601f191681016001600160401b03811182821017156111795761117961113d565b604052919050565b5f82601f830112611190575f5ffd5b81356001600160401b038111156111a9576111a961113d565b6111bc601f8201601f1916602001611151565b8181528460208386010111156111d0575f5ffd5b816020850160208301375f918101602001919091529392505050565b80356001600160401b038116811461105c575f5ffd5b5f5f5f5f5f60a08688031215611216575f5ffd5b85356001600160401b0381111561122b575f5ffd5b61123788828901611181565b95505060208601356001600160401b03811115611252575f5ffd5b61125e88828901611181565b94505060408601356001600160401b03811115611279575f5ffd5b8601601f81018813611289575f5ffd5b80356001600160401b038111156112a2576112a261113d565b8060051b6112b260208201611151565b9182526020818401810192908101908b8411156112cd575f5ffd5b6020850192505b838310156113125782356001600160401b038111156112f1575f5ffd5b6113008d602083890101611181565b835250602092830192909101906112d4565b8097505050505050611326606087016111ec565b9150611334608087016111ec565b90509295509295909350565b6020808252600e908201526d1c1bdb1b0b5b9bdd0b599bdd5b9960921b604082015260600190565b634e487b7160e01b5f52603260045260245ffd5b600181811c9082168061139057607f821691505b6020821081036113ae57634e487b7160e01b5f52602260045260245ffd5b50919050565b634e487b7160e01b5f52601160045260245ffd5b808201808211156106a0576106a06113b4565b601f82111561142257805f5260205f20601f840160051c810160208510156114005750805b601f840160051c820191505b8181101561141f575f815560010161140c565b50505b505050565b81516001600160401b038111156114405761144061113d565b6114548161144e845461137c565b846113db565b6020601f821160018114611486575f831561146f5750848201515b5f19600385901b1c1916600184901b17845561141f565b5f84815260208120601f198516915b828110156114b55787850151825560209485019460019092019101611495565b50848210156114d257868401515f19600387901b60f8161c191681555b50505050600190811b01905550565b818103818111156106a0576106a06113b4565b606081525f6115066060830186610f01565b6001600160401b039485166020840152929093166040909101529291505056fea264697066735822122075e4dc76f87212dd644e921b389c4803541c89a4c8e47266b8b7031939d145f664736f6c634300081c0033",
  "linkReferences": {},
  "deployedLinkReferences": {},
  "immutableReferences": {},
  "inputSourceName": "project/contracts/Voting.sol",
  "buildInfoId": "solc-0_8_28-a54b09f1d76f26561e78ad4967cd30dc21a6a3ec"
}